:1000000047C06BC06AC069C068C067C066C065C0D1
:1000100064C063C062C061C060C05FC05EC05DC0DC
:1000200015C45BC0D0C201C358C057C056C055C02C
:1000300054C053C000000008000201000003040780
:1000400000000000000000000102040810204080B1
:100050000102040810200102040810200404040412
:100060000404040402020202020203030303030362
:1000700000000000230026002900000000002500E9
:1000800028002B0000000000240027002A00430362
:1000900011241FBECFEFD4E0DEBFCDBF11E0A0E042
:1000A000B1E0E6EBFDE002C005900D92AE39B1077C
:1000B000D9F723E0AEE9B1E001C01D92AC3EB20732
:1000C000E1F710E0C8E4D0E003C02197FE016BD651
:1000D000C734D107D1F705D36CC692CF60E080E179
:1000E00011C58111FBCF61E080E10CC5CF93DF9397
:1000F000C8E0D1E062E08991C9D481E0CC30D80772
:10010000C9F761E089E0C2D461E08AE0BFD461E070
:1001100080E1BCD461E08AE0F5D461E089E0F2D40A
:10012000DF91CF91DBCFCF92DF92EF92FF920F93CF
:100130001F93CF938091A9018A3028F48F5F809319
:10014000A90180E07AC01092A90188E0C82E81E060
:10015000D82E94E0E92E91E0F92E00E011E0C0E005
:10016000F60181916F01FCD4F70181937F01C330C7
:1001700071F581112CC09091A801911128C0809136
:10018000A4019091A501A091A601B091A701AC0195
:10019000BD014F5F5F4F6F4F7F4F4093A40150935E
:1001A000A5016093A6017093A70181329340A10538
:1001B000B10580F11092A4011092A5011092A60140
:1001C0001092A70181E08093A80182E026C0F80187
:1001D00090818917C9F08130B9F4C33021F480913E
:1001E000A801811107C0C0934403C330A9F0C09394
:1001F000430312C01092A8011092A4011092A5010D
:100200001092A6011092A701CF5F0F5F1F4FC4305D
:1002100009F0A6CF80E001C081E040910401509137
:100220000501609106017091070140930001509310
:1002300001016093020170930301CF911F910F910F
:10024000FF90EF90DF90CF900895823041F46CE002
:1002500071E086E493E092D21092420308958130D7
:1002600019F5809144038330F9F0813049F028F08A
:10027000823059F46BE271E005C068E171E002C0C0
:1002800061E271E086E493E079D290914403809139
:10029000A301891304C0809142038F5F01C081E0F4
:1002A000809342039093A301089561E089E02AD4EA
:1002B00061E08AE027C4813051F020F0823069F497
:1002C00060E006C060E08AE01DD461E004C061E047
:1002D0008AE018D460E089E015C40895CF92DF92D7
:1002E000EF92FF920F931F93CF93DF93C82F8091CC
:1002F0004503823009F4DBC028F48823B9F081304B
:1003000099F13AC1833009F4D9C0843009F034C17D
:1003100068EE73E080E090E014D30AE712E0C0E0FA
:10032000D0E080E4E82EFF24F39409C181E08093BB
:1003300045038AECE8E7F2E0DF01282F1D922A95B9
:10034000E9F7EEEAF1E0DF011D928A95E9F762E351
:1003500071E086E493E0DF91CF911F910F91FF90C0
:10036000EF90DF90CF900AC28091A201882331F1F3
:10037000B7D200919E0110919F012091A001309170
:10038000A101DC01CB01801B910BA20BB30B853FBC
:100390009140A105B10580F08091A2018150809328
:1003A000A2019ED260939E0170939F018093A00151
:1003B0009093A10193DE02C080E093DEC130C9F5C5
:1003C00080914403833009F0D7C065E471E086E48E
:1003D00093E0D4D12091AE013091AF0124363105A4
:1003E00008F0CAC040914203442309F4C5C02F5FFE
:1003F0003F4FF901EE0FFF1FE255FE4F809143037F
:1004000090E0982F8827840F911D9183808310920C
:1004100042033093AF012093AE01C093A20160D29A
:1004200060939E0170939F018093A0019093A1011E
:10043000A3C0C23009F0A0C08091AE019091AF017D
:10044000892B09F499C0C093450361E571E086E406
:1004500093E094D16091AE017091AF014AE050E019
:1004600086E493E0EED165E671E086E493E086D120
:1004700000EB11E0C0E0D0E08091AE019091AF01BF
:10048000C817D90780F4D8016D917D918D0140E1A5
:1004900050E086E493E0D5D169E771E086E493E02B
:1004A00069D12196E9CF88E08093A20165C016DE6C
:1004B00064EF71E080E090E044D25BC0C13091F421
:1004C00080914403833071F48AECEEEAF1E0A8E70E
:1004D000B2E001900D928A95E1F780E002DE84E0BF
:1004E00080934503FDD100919E0110919F012091C1
:1004F000A0013091A101DC01CB01801B910BA20B6B
:10050000B30B853F9140A105B105B0F1E9D16093EE
:100510009E0170939F018093A0019093A10180E1BF
:100520001FD361E0019709F460E080E1DF91CF9192
:100530001F910F91FF90EF90DF90CF90E3C28091D9
:10054000780290917902C817D90790F4D801CD901C
:10055000DD908D018D2DAFDECE9CB001CF9C700D56
:100560001124072E000C880B990BEBD12196E7CFB5
:100570009CDE83E080934503DF91CF911F910F9123
:10058000FF90EF90DF90CF900895CF93DF93B4D199
:100590006093AA017093AB018093AC019093AD017D
:1005A000C2DDC82F52DE8C2F99DEC091AA01D091F6
:1005B000AB01A2D19E0128513C4FC901861B970B6C
:1005C000DF91CF91F7C11F920F920FB60F921124B6
:1005D0002F938F939F93EF93FF93E0915603F091A6
:1005E00057038081E0915C03F0915D0382FD12C0AE
:1005F000908180915F038F5F8F73209160038217DA
:1006000051F0E0915F03F0E0EA5BFC4F958F80933F
:100610005F0301C08081FF91EF919F918F912F9196
:100620000F900FBE0F901F9018951F920F920FB64C
:100630000F9211242F933F934F935F936F937F9368
:100640008F939F93AF93BF93EF93FF9386E493E0D1
:10065000F8D2FF91EF91BF91AF919F918F917F91D0
:100660006F915F914F913F912F910F900FBE0F901F
:100670001F90189586E493E09BD221E0892B09F422
:1006800020E0822F0895E6E4F3E01382128288EEE0
:1006900093E0A0E0B0E084839583A683B7838FE8DE
:1006A00091E09183808385EC90E09587848784EC4A
:1006B00090E09787868780EC90E0918B808B81EC2F
:1006C00090E0938B828B82EC90E0958B848B86EC10
:1006D00090E0978B868B118E128E138E148E089558
:1006E000089573D1FDDF02DDC5E1D6E04EDF20972E
:1006F000E9F39BD2FBCFCF92DF92EF92FF920F9361
:100700001F93CF93DF936C017A018B01C0E0D0E09F
:10071000CE15DF0581F0D8016D918D01D601ED91E7
:10072000FC910190F081E02DC6010995892B11F013
:100730002196EECF7E01C701DF91CF911F910F91DE
:10074000FF90EF90DF90CF9008956115710579F0DB
:10075000FB0101900020E9F73197AF01461B570BD1
:10076000DC01ED91FC910280F381E02D099480E0A1
:1007700090E00895EACF6CE771E0E7CF0F931F9305
:10078000CF93DF93EC01E1DF8C01CE01F4DF800F2A
:10079000911FDF91CF911F910F9108958F929F929A
:1007A000AF92BF92EF92FF920F931F93CF93DF937D
:1007B000CDB7DEB7A1970FB6F894DEBF0FBECDBFA1
:1007C0007C01FA01CB0119A2223008F42AE08E0143
:1007D0000F5D1F4F822E912CA12CB12CBF01A501C2
:1007E0009401BFD2F901CA01015011096A3010F415
:1007F000605D01C0695CD8016C93232B242B252BF1
:1008000069F7B801C701A1DFA1960FB6F894DEBF62
:100810000FBECDBFDF91CF911F910F91FF90EF9051
:10082000BF90AF909F908F9008952115310541F4AE
:10083000DC01ED91FC910190F081E02D642F099491
:10084000ADCF9A01AB0160E070E0EFCF1F920F9245
:100850000FB60F9211242F933F938F939F93AF93D3
:10086000BF938091E4039091E503A091E603B091DA
:10087000E7033091E3032CE0230F2D3720F4049697
:10088000A11DB11D05C02FE8230F0596A11DB11DA7
:100890002093E3038093E4039093E503A093E6039E
:1008A000B093E7038091E8039091E903A091EA03F4
:1008B000B091EB030196A11DB11D8093E8039093C5
:1008C000E903A093EA03B093EB03BF91AF919F912B
:1008D0008F913F912F910F900FBE0F901F90189501
:1008E0002FB7F8946091E4037091E5038091E603DB
:1008F0009091E7032FBF08953FB7F8948091E803E4
:100900009091E903A091EA03B091EB0326B5A89B6F
:1009100005C02F3F19F00196A11DB11D3FBFBA2F91
:10092000A92F982F8827820F911DA11DB11DBC01F1
:10093000CD0144E0660F771F881F991F4A95D1F7B4
:1009400008958F929F92AF92BF92CF92DF92EF92D3
:10095000FF926B017C01D0DF4B015C01C114D1041B
:10096000E104F104F1F0FCD1C7DFDC01CB0188190F
:100970009909AA09BB09883E9340A105B10570F306
:1009800021E0C21AD108E108F10888EE880E83E060
:10099000981EA11CB11CC114D104E104F10421F77B
:1009A000DDCFFF90EF90DF90CF90BF90AF909F9002
:1009B0008F9008958A31910538F0469796958795DE
:1009C000969587950197F1F70895789484B582609C
:1009D00084BD84B5816084BD85B5826085BD85B5E3
:1009E000816085BDEEE6F0E0808181608083E1E892
:1009F000F0E01082808182608083E0E8F0E0808116
:100A000081608083E1EBF0E0808184608083E0EBB3
:100A1000F0E0808181608083EAE7F0E0808184609B
:100A2000808380818D7F80838081816080838081CD
:100A3000806880831092C1000895833081F028F48B
:100A4000813099F08230A1F008958730A9F0883084
:100A5000B9F08430D1F4809180008F7D03C0809103
:100A600080008F7780938000089584B58F7702C0CF
:100A700084B58F7D84BD08958091B0008F7703C0C9
:100A80008091B0008F7D8093B0000895CF93DF9365
:100A900090E0FC01E85BFF4F2491FC01E45AFF4F1A
:100AA0008491882361F190E0880F991FFC01EC5735
:100AB000FF4FC591D491FC01E658FF4FA591B49129
:100AC000611109C09FB7F89488812095822388839B
:100AD000EC912E230BC0623061F49FB7F8948881AB
:100AE000322F309583238883EC912E2B2C939FBF3C
:100AF00006C08FB7F894E8812E2B28838FBFDF9133
:100B0000CF9108951F93CF93DF93282F30E0F90101
:100B1000EC5CFF4F8491F901E85BFF4FD491F90140
:100B2000E45AFF4FC491CC23B9F0162F811185DF11
:100B3000EC2FF0E0EE0FFF1FE658FF4FA591B491A8
:100B40009FB7F894111104C08C91D095D82302C09E
:100B5000EC91DE2BDC939FBFDF91CF911F91089525
:100B6000CF93DF93282F30E0F901EC5CFF4F8491A5
:100B7000F901E85BFF4FD491F901E45AFF4FC491AA
:100B8000CC2389F0811159DFEC2FF0E0EE0FFF1F2D
:100B9000E059FF4FA591B491EC91ED2381E090E0F5
:100BA00021F480E002C080E090E0DF91CF910895D1
:100BB000FC01918D228D892F90E0805C9F4F821BDC
:100BC00091098F7399270895FC01918D828D981753
:100BD00031F0828DE80FF11D858D90E008958FEF43
:100BE0009FEF0895FC01918D828D981761F0828DA1
:100BF000DF01A80FB11D5D968C91928D9F5F9F7351
:100C0000928F90E008958FEF9FEF0895FC01538D30
:100C1000448D252F30E0842F90E0821B930B5417D6
:100C200010F0CF960895019708958AE393E0892BF9
:100C300039F080E090E0892B19F01CDD8111E0C9CA
:100C40000895FC01848DDF01A80FB11DA35ABF4F89
:100C50002C91848D90E001968F739927848FA689BB
:100C6000B7892C93A089B1898C91837080648C930F
:100C7000938D848D981306C00288F389E02D8081BE
:100C80008F7D80830895EF92FF920F931F93CF93F0
:100C9000DF93EC0181E0888F9B8D8C8D981305C0CC
:100CA000E889F989808185FD25C0F62E0B8D10E03D
:100CB0000F5F1F4F0F731127E02E8C8DE8120BC0B2
:100CC0000FB607FCFACFE889F989808185FFF5CF57
:100CD000CE01B7DFF2CF8B8DFE01E80FF11DE35A95
:100CE000FF4FF0829FB7F8940B8FEA89FB898081D0
:100CF00080620AC09FB7F894EE89FF896083E88913
:100D0000F98980818370806480839FBF81E090E057
:100D1000DF91CF911F910F91FF90EF900895CF93A6
:100D2000DF93EC01888D8823C1F0EA89FB898081FB
:100D300085FD05C0A889B9898C9186FD0EC00FB6C6
:100D400007FCF5CF808185FFF2CFA889B9898C9106
:100D500085FFEDCFCE0175DFE8CFDF91CF9108950C
:100D60000895A1E21A2EAA1BBB1BFD010DC0AA1FEC
:100D7000BB1FEE1FFF1FA217B307E407F50720F004
:100D8000A21BB30BE40BF50B661F771F881F991F7F
:100D90001A9469F760957095809590959B01AC01C8
:100DA000BD01CF010895EE0FFF1F0590F491E02DD6
:100DB0000994F894FFCF0101010101010101080527
:100DC00007066B65792070726573736564006C65E6
:100DD0006674206B6579007269676874206B657949
:100DE000006677206B657900656E74657220636FAD
:100DF0006D6D616E64206D6F646500616464206375
:100E00006F6D6D616E640073746F72696E672063DD
:100E10006F6D6D616E64732E2E2E0020636F6D6D8D
:100E2000616E647320617265207265616479002C63
:100E300020000D0A006E616E00696E66006F7666B6
:100E4000000000000043067B0306068F06D805F26B
:100E500005E40500FFFFFFFFFFFFFFFFFFFFFFFFB0
:100E6000FFFFFFFFFFFFFFFFFFFFFFFFFFFFFFFF92
:100E7000FFFFFFFFFFFFFFFFFFFFFFFFFFFFFFFF82
:100E8000FFFFFFFFFFFFFFFFFFFFFFFFFFFFFFFF72
:100E9000FFFFFFFFFFFFFFFFFFFFFFFFFFFFFFFF62
:00000001FF
